:020000020000FC
:1000000012C0189518951895189518951895189563
:100010001895189518951895189518951895189578
:10002000189518951895F89400E808B9002708BBAA
:1000300005BB02BB0FEF07BB04BB01BB40E034E4D0
:1000400004E00EBF0FE50DBF00E000BD0CE009B9F4
:1000500008E10AB9789403D015D02DD0FCCF5F9B6E
:10006000FECF2CB110E0223420F0253410F4322FD2
:1000700008C0203328F0283318F42053422F01C041
:1000800011E008951130B1F051E0042F003019F063
:10009000550F0A95E9F7323406C0333408C002E13F
:1000A000052702BB07C008E1052708BB03C005E11F
:0E00B000052705BB08955D9BFECF1CB9089582
:00000001FF
